:02000004080AE8
:1000000000000A08E8560A0800000600060005017C
:0800100004025004000000008E
:1000180064500A0809480A4908B5884205D0094ABF
:10002800824202D0121A04F0D5FF0748074A00217D
:10003800121A04F0DAFF064808BD00BF00030020CA
:1000480054560A086C0300206C030020C0060020E8
:10005800C006002070B502F0D1F9074B074C1E46C8
:10006800E41AA4080025A54204D056F8253098477C
:100078000135F8E770BD00BFEC550A0844560A0878
:1000880000F01CB808B500F067F8BDE8084002F0B9
:1000980077B900F0EDBF00F0EBBF00F0F1BF0078DA
:1000A800B0FA80F0400970470123037070470000E0
:1000B800014800F0D1BA00BF7403002038B502F03F
:1000C80079F84FF4165102F069F847F22F551A4C97
:1000D80002F070F803681B69984790B900F0E2FDD8
:1000E800A8420ED802F066F8144901F0C0F900F0F1
:1000F800D9FD206000F05CFF4FF47A7000F0D8FF63
:10010800E6E702F057F80E4901F0B1F902F052F8AB
:100118000C4901F099F902F04DF80B4901F0A7F9E3
:1001280002F048F8094901F0A2F9094800F0FBF982
:10013800084B00221A6038BDCC05002078500A0808
:1001480090500A08C7500A0849520A08D5500A08A8
:1001580074030020D0030020F7B500F0A3FD6B4E18
:100168003368834280F0D080694D2B78ABB902F0B8
:1001780021F8684901F068F902F01CF8664B0A2278
:10018800196801F0CCF902F015F8644901F05CF93E
:10019800634800F0E1F901232B70614800F0A8FAE8
:1001A800002840F0B1805E4800F0AEFA044602F044
:1001B80001F85C4901F048F9E01D072825D8DFE877
:1001C80000F0201C1814100C080401F0F3FF564925
:1001D8001EE001F0EFFF55491AE001F0EBFF54492A
:1001E80016E001F0E7FF534912E001F0E3FF52493E
:1001F8000EE001F0DFFF51490AE001F0DBFF504952
:1002080006E001F0D7FF4F4902E001F0D3FF4E4965
:1002180001F02DF901F0CEFF4C4901F015F901F07C
:10022800C9FF07463E4800F08BFA04F0CBF80224D9
:1002380002460B463846009401F022FA01F0BAFF54
:10024800434901F001F901F0B5FF0746344800F0D1
:100258005DFA04F0B7F8009402460B46384601F000
:100268000FFA01F0A7FF3B4901F0EEF801F0A2FFF9
:1002780007462B4800F07EFA04F0A4F800940246E2
:100288000B46384601F0FCF901F094FF324901F0C1
:10029800DBF801F08FFF0746214800F095FA04F0DB
:1002A80091F8009402460B46384601F0E9F901F04E
:1002B80081FF2A4901F0C8F801F07CFF0746184879
:1002C80000F0AAFA009402460B46384601F0D8F925
:1002D80001F070FF224901F0B7F801F06BFF074603
:1002E8000F4800F001FB009402460B46384601F027
:1002F800C7F9094A13680133136000232B7000F013
:10030800D1FC00F5FA60306003B0F0BDD0030020E6
:10031800D40300209F520A0870030020E5500A0801
:10032800740300200C510A081A510A081D510A08C2
:1003380034510A084F510A086F510A088B510A08AC
:100348009D510A08B9510A08CD510A08DB510A081B
:10035800EA510A08FD510A0810520A0822520A08EE
:1003680033520A0810B500F0A5FCBDE81040034B55
:1003780016220321024800F0D3B800BFB9000A08CA
:100388007403002003685A68986812F0010F4FEA56
:10039800620218BF81581B68104418BFCB58184711
:1003A80070B5044600F076FC41F27072A36BA0634E
:1003B800C31A93420BD96FF00103E362032384F855
:1003C8002930B4F84400BDE8704000F0BFBE94F88E
:1003D800292002F0FF0112B1012920D070BD402B65
:1003E80003D8A26BD31AA36370BDA3F17E025D2A62
:1003F800DDB205D8236C5A1C22641D70012371E0FC
:10040800B4F8440000F0A2FE226C6FF00203E3622D
:10041800032384F82930531C2364157070BDA3F19D
:100428003D025D2A4FD894F836106E2B214491F87E
:1004380030204FEA4202D2B281F8302008D994F82D
:100448003620224492F8301041F0010182F8301031
:10045800226CDBB2511C2164137094F8353003F020
:10046800FF054BBB072384F8353094F83630013349
:10047800DBB2052B84F8363036D1B4F8440000F0EE
:1004880065FE94F8306094F8312094F832303244A4
:1004980094F83300134494F834100344DBB28B42CD
:1004A80002D04FF0FF331BE00223E56284F82930C5
:1004B800012384F83C3070BD94F83530013BDBB241
:1004C80084F8353070BD606C092B80B204D800F018
:1004D8003DFE6FF0050303E000F038FE6FF0030304
:1004E800E362032384F8293070BD022A38B5044634
:1004F80005D0032A0FD0012A10D10B6809E00C207F
:100508000D68FFF7C6FD034618B195E8070083E8B4
:100518000700236002E00068FFF7BFFD002038BD38
:1005280041648264704738B504460023C3640323DA
:10053800012580F829306FF0060380F85050C36217
:100548002946B0F8440001F0A9FF2946B4F8440050
:10055800BDE8384001F0B3BF70B5044686B000F07E
:10056800A1FB94F8503023B9E36CC31AB3F5FA6FC2
:100578000AD394F82930032B08D094F82930022B99
:1005880004D06FF004005FE002205DE000231A460B
:1005980084F85030E06484F82930E2540133292B80
:1005A8004FF00005F9D1072384F8305084F8315012
:1005B80084F8325084F8335084F8345084F8353055
:1005C80000236365A3650121B4F84400246484F81A
:1005D800365001F063FF2946B4F8440001F06FFF7C
:1005E800A36C0B2B03D1122000F062FD03E040F254
:1005F800DC5000F047FB0021B4F8440001F04EFF46
:1006080000F048FB0025A0630C20B4F84460049572
:10061800FFF73FFD18B10D4B846080E828000C4BB4
:10062800029005930B4B022204930023009302A926
:100638004FF0FF33304600F0CBFD049B1BB102A9FD
:10064800032208469847012006B070BDA9030A088E
:100658008D030A08F3040A08704700000000000030
:1006680010B5836C04460B2B30D039DB153B012BBE
:1006780036D890F8300094F8313003EB002080B27F
:1006880003F08EFE18A3D3E9002303F0EFFE04F075
:10069800E5F994F83230606594F8320013F0800F71
:1006A80094F833301BBF00F07F0003EB002003EB0E
:1006B8000020404208BF80B203F072FE0AA3D3E9CB
:1006C800002303F0D3FE04F0C9F908E090F83000E5
:1006D80004F0CAFA606594F8320004F0C5FAA0651F
:1006E800002384F83C3010BD9A9999999999B93F9B
:1006F80090F82930022B05D090F82900033818BF4C
:100708000120704700207047C06A704710B590F804
:1007180029300446032B03D1C06A04F0A9FA10BD9E
:1007280090F82930022B06D190F83C300BB1FFF736
:1007380097FFA06D10BD014810BD00BF0000A0C00C
:1007480010B590F829300446032B03D1C06A04F091
:100758008FFA10BD90F82930022B06D190F83C3062
:100768000BB1FFF77DFF606D10BD014810BD00BFE4
:100778000000A0C010B590F829300446032B03D11F
:10078800C06A04F075FA10BD90F82930022B10D118
:1007980090F83C300BB1FFF763FF0749A06D04F0F8
:1007A800BBFA064904F06CFB4FF0844104F0ACF945
:1007B80010BD034810BD00BF000010410000A0405C
:1007C8000000A0C00000000010B590F829300446D1
:1007D800032B03D1C06A04F04BFA10BD90F82930FE
:1007E800022B0FD190F83C300BB1FFF739FFA06D09
:1007F80003F0E8FD04A3D3E9002303F085FC04F02B
:100808002DF910BD024810BD666666666612714015
:100818000000A0C0000000002DE9F84390F829303E
:100828000446032B04D1C06A03F0BAFDBDE8F8837F
:1008380090F82930022B46D190F83C300BB1FFF7E5
:100848000FFFA06D03F0BEFD0646606D0F4603F076
:10085800B9FD0022224B03F033FF01F0F3FF1CA384
:10086800D3E9002304460D463046394603F0FEFD21
:1008780019A3D3E90023804689463046394603F058
:1008880043FC02460B464046494603F019FF224600
:100898002B4603F039FC10A3D3E9002306460F4684
:1008A80003F0E4FD324604460D4609A1D1E90001F2
:1008B8003B4603F027FC02460B462046294603F038
:1008C800FFFEBDE8F88300200649BDE8F88300BFB5
:1008D8004C378941604531406666666666B66D404C
:1008E80000005940000014C02DE9F04790F8293065
:1008F8008246032B04D1C06A03F052FDBDE8F0879D
:1009080090F82930022B40F0AB8090F83C300BB1C6
:10091800FFF7A6FEDAF8580003F054FD52A3D3E916
:10092800002303F0F1FB02460B4651A1D1E9000177
:1009380003F0C6FE0022644B04460D4603F0E2FBBA
:100948004DA3D3E9002306460F4603F08FFD8046EA
:1009580089462046294601F0F5FF49A3D3E900233B
:1009680003F084FD42464B4603F0CEFB2246804608
:1009780089462B460020544903F0A2FE02460B4646
:100988000020514903F0BEFB3FA3D3E9002303F045
:100998006DFD02460B4600204C4902F055F8002236
:1009A800494B03F0AFFB3AA3D3E9002303F05EFD04
:1009B80042464B4603F0A8FB37A3D3E9002304467D
:1009C8000D463046394603F051FD02460B460020DD
:1009D8003E4902F039F800223B4B03F093FB30A369
:1009E800D3E9002303F042FD22462B4603F08CFB9B
:1009F8002DA3D3E9002303F087FB0022344B03F037
:100A080081FB02460B460020304902F01DF80446DF
:100A18000D46DAF8540003F0D5FC22462B4603F0C5
:100A280025FD23A3D3E9002303F04AFE01F00AFFC2
:100A380021A3D3E9002306460F4603F017FD3246EB
:100A480004460D461EA1D1E900013B4603F05AFBBE
:100A580002460B462046294603F032FEBDE8F087E1
:100A680000201C49BDE8F08766666666661271401C
:100A78006666666666527740B1C403CAA69C1FC004
:100A8800CDAFE600C11C1440E3A59BC420B02640AE
:100A9800B13D4236248B82BE037D224F92EE0BC0BD
:100AA800630333F0EDA7803F1B549E40B40B08400E
:100AB800CFA0A17F828BE33F5C8FC2F5283C6E40BC
:100AC800022B8716D98E31400000F03F00002440E9
:100AD80000000840000014C000F0ECB810B504464F
:100AE800054B03606433036101F000F9204601F00F
:100AF80035FA204610BD00BF68540A0838B50B4BBC
:100B08008469054603607CB16368013B63605BB937
:100B1800236820469B689847A368013BA3601BB9DC
:100B280023682046DB689847284638BDD8530A080A
:100B380010B58368044613B103220146984720463E
:100B480010BD10B50446FFF7C9FF2046FFF7A5FA08
:100B5800204610BD10B50446FFF7D0FF2046FFF72A
:100B68009CFA204610BD000070B5104D00F0A2F8A8
:100B78000F4C104E284600F0EDFF28460E4D224639
:100B8800314601F00FFD284600F0E4FF28460B4DE2
:100B98002246314601F006FD284601F0C1F92246F9
:100BA8002846BDE87040064901F0FCBCF40300206B
:100BB8006C030020050B0A08D8030020100400204D
:100BC800E50A0A0810B5064C00F074F8204600F053
:100BD800C1FF2046BDE81040024A034901F0E2BCCB
:100BE8005C0400206C030020050B0A0808B500F01F
:100BF80061F8BDE8084000F055B800F05BB80000A7
:100C0800024B00221A7000F055B800BF780400208B
:100C180010B5064C00F04EF8204600F09BFF204629
:100C2800BDE81040024A034901F0BCBC7C04002026
:100C38006C030020050B0A0810B5064C00F03AF8C2
:100C4800204601F06DF92046BDE81040024A0349EC
:100C580001F0A8BC980400206C030020E50A0A08EB
:100C680000F028B808B5024B1B681B6B019308BD40
:100C7800D001060808B5024B1B685B68019308BDE4
:100C88009C01060808B5024B1B68DB68019308BD88
:100C98009C01060808B5024B1B681B69019308BD37
:100CA8009C01060808B5024B1B685B69019308BDE7
:100CB8009C01060808B5024B1B681B68019308BD18
:100CC800B001060808B5024B1B689B68019308BD74
:100CD800B001060808B5024B1B68DB68019308BD24
:100CE800B001060808B5024B1B681B69019308BDD3
:100CF800B001060808B5024B1B689B69019308BD43
:100D0800B001060808B5024B1B68DB69019308BDF2
:100D1800B001060808B5024B1B681B6E019308BD9D
:100D2800AC01060808B5024B1B685B6E019308BD51
:100D3800AC01060808B5024B1B689B6E019308BD01
:100D4800AC01060808B5024B1B68DB6E019308BDB1
:100D5800AC01060808B5024B1B681B6F019308BD60
:100D6800AC01060808B5024B1B685B6F019308BD10
:100D7800AC01060808B5034B1B68D3F88030019313
:100D880008BD0000AC01060808B5024B1B681B68CB
:100D9800019308BDBC01060808B5024B1B685B68D7
:100DA800019308BDBC01060808B5024B1B689B6887
:100DB800019308BDBC01060808B5024B1B68DB6837
:100DC800019308BDBC01060808B5024B1B681B69E6
:100DD800019308BDBC01060808B5024B1B685B6996
:100DE800019308BDBC01060808B5024B1B68DB6906
:100DF800019308BDBC01060808B5024B1B681B6AB5
:100E0800019308BDBC01060808B5024B1B681B6BA3
:100E1800019308BDBC01060808B5024B1B685B6C52
:100E2800019308BDBC01060808B5024B1B68DB69C5
:100E3800019308BDB401060808B5024B1B681B6A7C
:100E4800019308BDB401060808B5024B1B689B69ED
:100E5800019308BDC401060808B5024B1B685B6A0C
:100E6800019308BDC401060808B5024B1B689B6ABC
:100E7800019308BDC401060808B5024B1B68DB6A6C
:100E8800019308BDC401060808B5024B1B681B6B1B
:100E9800019308BDC401060808B5024B1B685B6BCB
:100EA800019308BDC401060808B5024B1B689B6B7B
:100EB800019308BDC401060808B5024B1B681B6CEA
:100EC800019308BDC401060808B5024B1B681B68DE
:100ED800019308BDD801060808B5024B1B685B687A
:100EE800019308BDD801060808B5024B1B681B69A9
:100EF800019308BDD801060808B5024B1B685B6959
:100F0800019308BDD801060808B5024B1B689B6908
:100F1800019308BDD801060808B5024B1B68DB69B8
:100F2800019308BDD801060808B5024B1B681B6A67
:100F3800019308BDD801060808B5024B1B685B6C15
:100F4800019308BDC001060808B5024B1B689B6CDD
:100F5800019308BDC001060808B5024B1B681B6D4C
:100F6800019308BDA801020808B5024B1B685B681D
:100F7800019308BDA401060808B5024B1B685B690C
:100F8800019308BDA401060808B5034B1B68D3F8F4
:100F98009030019308BD0000A401060808B5034B72
:100FA8001B68D3F89C30019308BD0000A401060813
:100FB80008B5024B1B689B68019308BDCC01060865
:100FC80008B5024B1B68DB6B019308BDCC01060812
:100FD80008B5024B1B685B68019308BDC801060889
:100FE80008B5024B1B689B68019308BDC801060839
:100FF80008B5024B1B68DB68019308BDC8010608E9
:1010080008B5024B1B681B69019308BDC801060897
:1010180008B5024B1B685B69019308BDC801060847
:1010280008B5024B1B689B69019308BDC8010608F7
:1010380008B5024B1B68DB69019308BDC8010608A7
:1010480008B5024B1B681B6A019308BDC801060856
:1010580008B5024B1B681B6B019308BDC801060845
:1010680008B5024B1B685B6B019308BDC8010608F5
:1010780008B5024B1B681B68019308BDA001060850
:1010880008B5024B1B685B68019308BDA001060800
:1010980008B5024B1B68DB6A019308BDA00106086E
:1010A80008B5024B1B68DB6B019308BDA00106085D
:1010B8000021FFF761BF7047F8B5064615460C4694
:1010C8008F18BC4206D0336814F8011B9B68304661
:1010D8009847F6E72846F8BD0022007CFFF71ABEBD
:1010E8000021007CFFF71EBE0021007CFFF722BE16
:1010F8000021007CFFF726BE0021007CFFF72ABEF6
:1011080010B50446FEF7C9FF204610BD10B50446C9
:1011180008464FF47A73A360044B00212074616081
:101128002360FFF727FE204610BD00BF58520A086B
:101138000021007CFFF716BE826810B50AB901F0DD
:1011480036FAC368BDE810401847000070B5064677
:10115800FFF7D8FD074B53F826501C462DB12846FB
:10116800FFF7E6FC2846FEF798FF002344F82630F0
:1011780070BD00BFE404002038B5002383608B688D
:1011880004460D462BB102229847EB68E360AB6832
:10119800A360204638BD0000F8B50C4B064653F84E
:1011A80020500F461C462DB12846FFF7C1FC2846A3
:1011B800FEF773FF1020FEF76CFF054610B13946A5
:1011C800FFF7DAFF44F826502846F8BDE40400206B
:1011D800F0B50C46054685B017461E46FFF792FD4A
:1011E80021462846FFF7D8FF0446B8B1002104235A
:1011F8008E4203918DF80C30B4BF0B469DF8283011
:101208000246A4BF8DF80E3003AB009306493B4657
:101218002846A8BF8DF80D60FFF76CFD201C18BF8D
:10122800012005B0F0BD00BF41110A08704710B594
:101238000446FEF732FF204610BDF8B50F4600F110
:101248000806051D002416F8011D0A22384600F07C
:1012580042F9AE42044407D0002CF4D02E2138467F
:1012680000F0F6F80444EEE72046F8BD10B5044651
:10127800044B112240F8043B002103F0B6FE20463F
:1012880010BD00BF80520A080346074A10B543F84C
:10129800042B01F1100251F8044B914243F8044B1E
:1012A800F9D10A781A7010BD80520A08024A4160C2
:1012B800026004220275704780520A0810B59DF832
:1012C800084044EA032343EA024242EA0161042354
:1012D8004160037510BD000037B5044D05609DF8E9
:1012E80018500095FFF7EAFF03B030BD80520A0896
:1012F80037B50D788B784A78C97800912946FFF779
:10130800DDFF03B030BD0000014A024B1A60704790
:1013180045530A084405002000231A464068FFF791
:1013280057BE002202214068FFF762BE0022114624
:101338004068FFF755BE002211464068FFF760BEBF
:1013480000231A4619464068FFF762BE00231A4672
:1013580019464068FFF764BE002281F00101406829
:10136800FFF766BE00224068FFF772BE00221146F2
:101378004068FFF775BE002211464068FFF760BE5F
:1013880070B516468EB0044608A8FFF76FFF112205
:10139800002103A803F029FE304603F057FE00257C
:1013A8000A4B009581B25B6803AA3046FFF7CCFD73
:1013B80020B129462046FFF779FF03E003A920461C
:1013C800FFF762FF20460EB070BD00BFBC050020CD
:1013D800034B044A04280CBF10461846704700BF48
:1013E80048050020BC050020024B034A1A60002271
:1013F8005A607047480500206C530A08F8B506463D
:101408000D468F180024BD420CD0336815F8011B17
:101418009B6830469847002801DB0444F3E7002C1A
:1014280008BF04462046F8BD70B505460C46084678
:1014380049B103F00BFE2B68024621462846BDE859
:101448007040DB68184770BD08B5FFF7EDFF08BDB1
:1014580003689B68184738B50D210546FFF7F8FF64
:101468000A2104462846FFF7F3FF204438BD38B563
:101478000546FFF7D9FF04462846FFF7ECFF20444E
:1014880038BD012A98BF0A2230B50B468BB000211F
:101498008DF824100DF12304B3FBF2F505FB12338C
:1014A800DBB2092B94BF30333733DBB2214604F863
:1014B80001392B46002DEFD1FFF7B6FF0BB030BD39
:1014C80010B422B90368C9B29B6810BC1847D2B2DD
:1014D80010BCFFF7D6BFFFF7F3BF2DE9F041074671
:1014E8000E4615462AB9BDE8F0410368C9B29B68A3
:1014F80018470A2A02D1002901DA04E0D2B2BDE86D
:10150800F041FFF7BEBF2D21FFF7A2FF2A46044690
:1015180071423846FFF7B5FF2044BDE8F081FFF778
:10152800DCBF00002DE9F8431946804610461746EF
:101538001E469DF8205003F033FA08B1474912E0DF
:1015480026F000444FF0FF32454B3846214603F061
:1015580027FA68B94FF0FF32414B3846214603F06D
:1015680001FA28B93F494046FFF75EFFBDE8F88316
:101578004FF060423C4B3846314603F007FA08B159
:101588003A49F0E74FF06042394B3846314603F0AC
:10159800DFF90028F4D1002200233846314603F051
:1015A800D7F938B12D214046FFF752FF06F1004622
:1015B800044600E004462F494FF0000900205FFA76
:1015C80089F39D4206D900222B4B03F079F809F1E3
:1015D8000109F4E73A46334602F096FD0F460646FF
:1015E80003F01CFA0A22014681464046FFF749FFEC
:1015F80004447DB3484602F0C3FE02460B4630461B
:10160800394602F07FFD06460F4640461B49FFF764
:101618000BFF0444184B00223046394602F026FFDF
:101628000F46064603F0D2F90A2201468146404693
:10163800FFF753FF0444484602F0B2FE02460B4649
:101648003046394602F05EFD013D15F0FF050646BD
:101658000F46DFD12046BDE8F88300BF98530A083B
:10166800FFFFEF7FA0530A08FFFFEF419C530A08D2
:10167800FFFFEFC10000E03F000024408E500A0841
:1016880037B59DF8181005460091FFF74BFF044643
:101698002846FFF7E0FE204403B030BD10B50446ED
:1016A800FFF746FA204610BD034800238360034A2B
:1016B800034900F077BF00BF500500206C030020ED
:1016C800A5160A08704710B50446FEF7E6FC204642
:1016D80010BD000070B504460E46074B0025036098
:1016E80040F80C5FFFF7BEFA30462671FFF79CFB07
:1016F800A560204670BD00BFAC530A080079FFF70B
:101708009BBB00004FF6FF72034B002018705880F7
:101718009A80FFF729BC00BF6005002037B502ACEE
:10172800036804F8011DDD6B012247F2305321469E
:10173800A84703B030BD10B40368DC6B47F23053E0
:10174800A44610BC604737B502AC036804F8011D15
:10175800DD6B214613460122A84703B030BD704710
:1017680070470020704710B50446FEF796FC2046E7
:1017780010BDFEF792BC10B5044603689B689847F5
:10178800A368013BA3602BB923682046BDE810403D
:10179800DB68184710BD000070B5044606464D6961
:1017A800044B8C3544F8043B0FCD0FC42B683046EE
:1017B800237070BD80520A0810B543690446B3F817
:1017C8008620B3F884309A4205D06269B2F8843032
:1017D8001344187910BD03681B6998470028F4D191
:1017E8004FF0FF3010BD10B543690446B3F88620AA
:1017F800B3F884309A4208D06269B2F88430591C30
:10180800A2F884101344187910BD03681B6998471F
:101818000028F1D14FF0FF3010BDF8B543691746E5
:10182800B3F88620B3F8843005469A420E4606D1AE
:1018380003681B69984710B94FF0FF3414E06969D1
:101848003046B1F88430B1F886401944E41ABC42F5
:1018580028BF3C460431224603F0BCFB6A69B2F853
:1018680084302344A2F884302046F8BD426900231E
:10187800A2F884304269A2F88630704738B54269C8
:101888000446B2F886301BB1B2F884209A420CD0D4
:101898002069FFF79DFD0368DB68984718B3636903
:1018A8001868FFF779FA18B91DE0FFF7DFFFEFE7CF
:1018B8006069B0F886107F2915D8051DC1F180022E
:1018C800002329440068FFF77FFA00280BDD6369CD
:1018D800B3F886200AB9A3F884206269B2F8863082
:1018E8001844A2F886006269B2F88630B2F884001B
:1018F800181A38BD38B5436904461868FFF74CFA1A
:1019080018B163691868FFF777FA6569FFF77CFA19
:1019180028606069112200218C3003F066FB2046A4
:10192800BDE83840FFF7A2BF2DE9F0411F46036824
:101938008AB0DB6A06460C46154698473846FFF7D4
:1019480047FD0368DB689847002856D000972B4668
:10195800062201210220D6F81480FFF725FA202359
:10196800C8F8000000270293736903971B680120D9
:101978000193234B02AA009322493B46FFF7ECFA56
:1019880073691868FFF708FA002836D03046FFF761
:101998006DFF0223ADF808302B0A8DF80A30E37981
:1019A8004FF4FA508DF80C30A3798DF80B508DF860
:1019B8000D3063798DF80E3014F8043F8DF80F3030
:1019C800FFF7BAFA73690546102202A91868FFF7EB
:1019D800F3F980462846FFF7AFFA0FCC75698C35C6
:1019E8000FC523682B70B8F1000F05D03368304657
:1019F800DB6A9847384600E001200AB0BDE8F0816C
:101A080023540A081C540A0810B543690446186888
:101A1800FFF7C2F908B9002010BD2069FFF7D8FC0C
:101A28000368DB6898470028F5D063691868FFF7F2
:101A3800ABF9B0FA80F0400910BD2DE9F34100255B
:101A4800456004460E4617469846FFF7DDFF60B12D
:101A580060690195CDF800802B463A46314600680A
:101A6800FFF7DAF9002803DA01E04FF0FF30606091
:101A780002B0BDE8F08138B50446FFF7C5FF00BBEA
:101A88006369B3F88610B3F88420914219D11868B5
:101A9800FFF782F928B163691868FFF775F901281B
:101AA80001D000250EE0236820461B6998470028CE
:101AB80014BF0125002505D123682046DB6A984715
:101AC80000E00125284638BD08B5FFF79DFF003026
:101AD80018BF012008BD10B5044600230160A0F816
:101AE8008430A0F886308830FFF7C0FB204610BD50
:101AF8004FF47A7270B58260144A00234360026022
:101B0800436183610446A0200E46FEF7C2FA0546EB
:101B180010B13146FFF7DFFF1420FEF7BAFA03468B
:101B280028B1012242608260094A05610260A06909
:101B38006561A36128B14368013B43600BB9FFF7B6
:101B48001AFE2046FFF792FE204670BDD8530A08B9
:101B5800BC530A0810B50446FFF756F9014620465B
:101B6800FFF7C6FF204610BD10B504460068FFF712
:101B780013F910B12068FFF73FF9204610BD10B5E2
:101B880004692046FFF7F0FF24B12046BDE8104065
:101B9800FEF783BA10BD00002DE9F0431F46036825
:101BA8008FB0DB6A06460C46904698471248FFF706
:101BB800C2FBF0B102A8FFF759FB204603F046FA32
:101BC8000023009381B23B4603AA2046FFF7BCF9E5
:101BD80078B9336809ADD3F82090084B03AC089363
:101BE8000FCC0FC5236842462B7008A93B463046E8
:101BF800C8470FB0BDE8F0834805002080520A08A6
:101C0800024B1A68024B1A60704700BF000300209D
:101C18006805002010B40468246BA44610BC604713
:101C280003689B6C1847808E7047028FC08E101A0D
:101C3800704713B502AB026803F8011DD468194652
:101C48000122A04702B010BD10B5036804461B6905
:101C5800984728B1E38EE26B591CE186D05C10BD31
:101C68004FF0FF3010BD10B5036804461B69984754
:101C780018B1E38EE26BD05C10BD4FF0FF3010BDA1
:101C880070470346084610B4D98EDC6B1A8F036878
:101C9800521ADB68214410BC1847A0F11000FFF766
:101CA800F0BFF7B5054610460F461646FFF790FBFE
:101CB8000368DB689847B8B102213B461122084601
:101CC8000096FFF771F86861FFF766F8044630B1CF
:101CD8000023EB862B872F836E64012004E02B689A
:101CE80028465B6A9847204603B0F0BD38B50446DD
:101CF8004569FFF789F8854202D06069FFF77CF8EB
:101D0800FFF782F800236061E386238738BD30B58A
:101D180087B0BDF828400225ADF808508DF80B4073
:101D2800250ADC798DF80A508DF80C409C798DF8DD
:101D38000D405C791B798DF80E408DF80F3010231B
:101D4800019302AB009340690023FFF74DF807B0F9
:101D580030BD38B5C36B0546C08E13B12C6C241A40
:101D680000E01C46944228BF14461844224603F05B
:101D780031F9EB8E20462344EB8638BD70B50368F5
:101D880004461B690E461546984788B123682046C5
:101D98001B6998478542A8BF0546E38EE16B2A4632
:101DA8001944304603F016F9E38E2B44E38601E02C
:101DB8004FF0FF35284670BDF0B5044689B0406C39
:101DC8000D461646FFF704FB0368DB68984710B317
:101DD8006769FFF719F887421DD0E5B108AB1022F3
:101DE80043F8142D01930DEB0203009329460023B9
:101DF80032466069FEF7F0FF051E0EDB9DF81220E3
:101E08009DF8133005A943EA0223A38604F11C00B8
:101E1800FFF76EFA01E04FF0FF35284609B0F0BD34
:101E28002DE9F041064694B0406C0D469046FFF708
:101E3800CFFA0368DB689847F8B1284603F006F93B
:101E4800002481B20094736C03AA2846FFF77CF83B
:101E580090B903A908A8FFF717FA33680FAC9F6B6E
:101E6800074B09AD0E930FCD0FC42B684246237064
:101E78000EA93046B84700E0204614B0BDE8F0810E
:101E880080520A0870B504460646054B01F1200544
:101E980044F8043B0FCD0FC42B683046237070BD47
:101EA80080520A08F0B594468E460646026889B004
:101EB800976A094A03AC1D1D02920FCD0FC42B6807
:101EC80062462370BDF8383071460093304602AB45
:101ED800B84709B0F0BD00BF80520A08F0B5044603
:101EE800036889B09F6A0D4B03AD00F12006B0F876
:101EF80036E002930FCE0FC5336872462B70A38E5F
:101F0800E16B0093204602ABB8470546236820469C
:101F1800DB699847284609B0F0BD00BF80520A081F
:101F280038B54FF47A7383600B4B002503F1080230
:101F38006C330260036145600446FEF765FF60612B
:101F480004F11C00FFF792F94FF40073E58625872A
:101F5800E5632364204638BD60540A0810B590F83C
:101F6800483004461BB1C06B08B1FEF796F8002351
:101F7800E36384F848302364E386238710BD70B593
:101F8800044616460D46FFF7E9FF0023E66323647F
:101F98003EB935B12846FEF77EF80123E06384F8A0
:101FA8004830E36B03B12564206C003018BF012072
:101FB80070BDF8B51746C26B05460C461AB9016CD8
:101FC80009B1FFF7DCFF05F1200604340FCC0FC67A
:101FD800236833700023AF86EB862B87286CF8BD07
:101FE80070B5C26B04461AB9016C09B1FFF7C7FF97
:101FF800E16B0023E386238741B1226C32B120686C
:10200800056B2046A8470028C8BF208723682046BC
:10201800BDE870401B691847704741747047007CE1
:10202800FEF74ABF007CFEF71FBF007CFEF72CBFFF
:10203800007CFEF721BF007CFEF72EBF10B50446DA
:10204800FEF72BF8204610BD70B5457C04460E46B9
:1020580025B9007CFEF730FF002805DD3146207CDD
:10206800BDE87040FEF7F8BE284670BD10B50446BE
:1020780008461146002262604FF47A72A260054A4F
:1020880020742260012262741A46FEF7DDFE2046A3
:1020980010BD00BFD8540A08007CFEF705BF000039
:1020A800F8B5194C25684DB98420FDF7F2FF0646AE
:1020B80018B18422294602F098FF2660134D2E6835
:1020C8004EB98420FDF7E5FF074618B18422314652
:1020D80002F08BFF2F600E4F396811F0010611D105
:1020E8003846FDF7DCFF68B1226831462B6809489D
:1020F800FFF7BCFF3846FDF7D7FF074A07490548F1
:1021080000F050FA0348F8BD88050020800500203B
:10211800840500206C0500206C03002021200A089B
:102128004174704770470021007CFEF7EDBE012125
:10213800007CFEF7E9BE007CFEF7DEBE007CFEF701
:10214800D3BE38B50446007C0D46FEF7D5FE002800
:1021580001DC607C20B12946207CFEF7DDFE0120F1
:1021680038BD007CFEF7E0BE10B50446FDF795FFCC
:10217800204610BD10B50446002363604FF47A73FF
:10218800A360054B0846236001232174637411463C
:10219800FEF79AFE204610BD08550A080022007C6A
:1021A800FEF79ABE10B504461422002102F01DFF66
:1021B800204610BD30B50E4D87B001A8FFF7F2FFDD
:1021C800296811F0010410D12846FDF768FF60B1B5
:1021D80001AA21460748FFF7CDFF2846FDF764FF0F
:1021E800054A0649034800F0DDF9024807B030BD4A
:1021F8008C050020940500206C0300202D210A087E
:1022080010B504461422002102F0EFFE204610BD4E
:1022180010B50E4C86B001A8FFF7F2FF2368DB0764
:1022280010D42046FDF73BFF60B101AA0121084800
:10223800FFF7A0FF2046FDF737FF064A0649044886
:1022480000F0B0F9024806B010BD00BF90050020AC
:10225800A80500206C0300202D210A080022114641
:102268004068FEF7CDBEF0B5164689B011220F467C
:102278000446002103A802F0B8FE304602F0E6FE4C
:102288000025009581B27B6803AA3046FEF75CFE04
:1022980020B129462046FFF709F803E003A92046A4
:1022A800FEF7F2FF204609B0F0BD00221146406853
:1022B800FEF7C6BE002211464068FEF7D1BE0022D6
:1022C8004068FEF7C5BE002281F001014068FEF7B4
:1022D800AFBE00231A4619464068FEF7A1BE002388
:1022E8001A4619464068FEF793BE00221146406818
:1022F800FEF776BE002202214068FEF779BE002371
:102308001A464068FEF764BE024B04225A60024A2D
:102318001A607047BC05002038550A0808B5144BE8
:1023280033B1FFF747FF03681B699847002816DC9D
:10233800104B33B1FFF7B4FE03681B6998470028B8
:1023480010DC0D4B0BB1AFF300800C4B7BB1FFF7EA
:102358005FFF03681B699847002806DC08BDAFF3D8
:102368000080E5E7AFF30080EBE7AFF3008008BD3E
:102378000000000000000000000000000000000055
:1023880008B5FFF7CBFFFEF78DFC014B186008BDC1
:10239800CC0500200248034A0349121A02F01ABE6B
:1023A800004002400440024050560A0807B5002386
:1023B80000931A466FF07701FEF7F0FD03B05DF861
:1023C80004FB000007B543880A2B08D0502B09D11D
:1023D800094B1B683BB103B05DF804EB1847FFF7E6
:1023E800E5FF06E0002300931A466FF07701FEF739
:1023F800D5FD03B05DF804FBC405002038B5104CCA
:10240800104D2368AB42104B0CBF012200221A70FA
:1024180002D0FFF7BFFF2560FEF72CFC044602F050
:10242800EDFD0A4B13B12046AFF3008000210748A9
:10243800FEF7C6FDBDE8384000210548FEF7A4BDFB
:10244800004002401E1C279AC8050020000000001A
:10245800CD230A0810B504460F48FFF74FF928B1F5
:10246800A4F10D03022B01D8002010BD00F040F8A4
:10247800FEF75EFE08B1012CF6D9FFF711FEFFF753
:102488000BFE18B1A4F11203012BEDD9172C8CBF48
:102498000020012010BD00BF00060020172838B515
:1024A80004460D460AD8FF2908D0FFF7D3FF28B104
:1024B80029462046BDE83840FEF704BC38BD38B58B
:1024C80004460D46FEF706FCFF2810D0062804D85F
:1024D8004D2323FA00F0C30709D42046FFF7BAFFBB
:1024E80028B129462046BDE83840FEF7FBBB38BD79
:1024F80038B50B4D296811F001040FD12846FDF7B6
:10250800CEFD58B121460748FEF700FE2846FDF7E4
:10251800CBFD054A0549034800F044F8014838BD99
:10252800D0050020D40500206C030020BF100A0845
:1025380013B5084C00231A46194600932046FEF7A7
:10254800CBFE2046044A054902B0BDE8104000F021
:1025580029B800BFE80500206C03002035120A08DE
:1025680070B50C4C0C4E0D4D00212046FFF7B2F80B
:1025780020460B4C3246294600F014F8012120462B
:10258800FFF7A8F8324629462046BDE8704000F01B
:1025980009B800BF000600206C030020CD160A0809
:1025A800100600200B460146184602F005BD08B586
:1025B800FEF76EFD244B1A68D0075CBF01221A6033
:1025C800224B1A68D1075CBF01221A60204B1A6897
:1025D800D2075CBF01221A601E4B1A68D0075CBF85
:1025E80001221A601C4B1A68D1075CBF01221A60CD
:1025F8001A4B1A68D2075CBF01221A60184B1A6876
:10260800D0075CBF01221A60164B1A68D1075CBF5D
:1026180001221A60144B1A68D2075CBF01221A60A3
:10262800124B1A68D0075CBF01221A60104B1A6857
:10263800D1075CBF01221A600E4B1A68D2075CBF33
:1026480001221A60704700BF4C060020480600208F
:1026580044060020400600203C06002038060020E2
:1026680034060020300600202C0600202806002012
:102678002406002020060020184B1A68D1075CBFEA
:1026880001221A60164B1A68D2075CBF01221A6031
:10269800144B1A68D0075CBF01221A60124B1A68E3
:1026A800D1075CBF01221A60104B1A68D2075CBFC1
:1026B80001221A600E4B1A68D0075CBF01221A600B
:1026C8000C4B1A68D1075CBF01221A600A4B1A68C2
:1026D800D2075CBF01221A60704700BF6C06002059
:1026E8006806002064060020600600205C060020C2
:1026F800580600205406002050060020184B1A687F
:10270800D1075CBF01221A60164B1A68D2075CBF5A
:1027180001221A60144B1A68D0075CBF01221A60A4
:10272800124B1A68D1075CBF01221A60104B1A6855
:10273800D2075CBF01221A600E4B1A68D0075CBF33
:1027480001221A600C4B1A68D1075CBF01221A607B
:102758000A4B1A68D2075CBF01221A60704700BF93
:102768008C060020880600208406002080060020B1
:102778007C060020780600207406002070060020E1
:10278800244B1A68D0075CBF01221A60224B1A68D2
:10279800D1075CBF01221A60204B1A68D2075CBFC0
:1027A80001221A601E4B1A68D0075CBF01221A600A
:1027B8001C4B1A68D1075CBF01221A601A4B1A68B1
:1027C800D2075CBF01221A60184B1A68D0075CBF99
:1027D80001221A60164B1A68D1075CBF01221A60E1
:1027E800144B1A68D2075CBF01221A60124B1A6890
:1027F800D0075CBF01221A60104B1A68D1075CBF72
:1028080001221A600E4B1A68D2075CBF01221A60B7
:10281800704700BFBC060020B8060020B4060020A0
:10282800B0060020AC060020A8060020A406002060
:10283800A00600209C060020980600209406002090
:10284800900600202DE9F0418AB004460D4600F0BC
:1028580093FA374B064693F900800F46B8F1FF3FCD
:102868000DD022462B462046294602F099F830B969
:10287800002200232046294602F088F820B130467D
:1028880039460AB0BDE8F0812A4B0890CDE90245E7
:10289800CDE904450193B8F1000F19D1264F4FF047
:1028A80060462046294600220023CDE9066702F04B
:1028B80045F8002834D002230093684601F00CFB49
:1028C800A8B1089BC3B9DDE906010AB0BDE8F081EB
:1028D8001A4F00262046294600220023CDE9066724
:1028E80002F02CF868B1022398450093E5D1FEF771
:1028F800D7FB22230360E4E7FEF7D2FB089B0360C3
:10290800E1E70123B8F1020F00930BD1FEF7C8FBF2
:10291800212303600A4801F0E1FACDE90601D0E776
:1029280001230093684601F0D7FA0028F2D1EDE7B9
:102938000403002064550A08FFFFEFC70000F0FFFA
:1029480068550A082DE9F0438BB004460D4600F09F
:1029580007FC384B064693F900800F46B8F1FF3F55
:102968000ED022462B462046294602F019F8814609
:1029780030B9002200232046294601F0F3FF20B990
:10298800304639460BB0BDE8F0832B4BCDF820908C
:10299800CDE90245CDE904450193B8F1000F19D1FD
:1029A800264F4FF060462046294600220023CDE9F5
:1029B800066701F0C3FF002834D00223009368465D
:1029C80001F08AFAA8B1089BC3B9DDE906010BB08A
:1029D800BDE8F0831A4F002620462946002200232E
:1029E800CDE9066701F0AAFF68B102239845009374
:1029F800E5D1FEF755FB22230360E4E7FEF750FB21
:102A0800089B0360E1E70123B8F1020F00930BD1A3
:102A1800FEF746FB212303600A4801F05FFACDE97F
:102A28000601D0E701230093684601F055FA002813
:102A3800F2D1EDE7040300206C550A08FFFFEFC749
:102A48000000F0FF68550A082DE9F04F8DB00646E2
:102A58000F4614461D4600F00FFCDFF81093CDE931
:102A6800000199F90080B8F1FF3F46D022462B4675
:102A78002046294601F094FF834600283DD132467E
:102A88003B463046394601F08BFF8246002874D118
:102A9800304639460022002301F050FF002833D089
:102AA800002200232046294601F048FF8346B8B19A
:102AB800A94A012300200021CDF828A0CDE9046708
:102AC800CDE90645CDE9080103920293B8F1000F5C
:102AD8006CD0A24B0022104619460DB0BDE8F08F0D
:102AE8002046294601F0F2F938B100220023204699
:102AF800294601F02DFF00286AD1DDE900231046A0
:102B080019460DB0BDE8F08FDDE9000101F0DEF9EE
:102B1800804600287DD0DDE900014FF0000A4FF023
:102B2800000B52465B4601F009FF0028E5D030460D
:102B3800394601F0CBF90028DFD02046294601F0BC
:102B4800C5F90028D9D099F900308348042100221A
:102B5800022BCDE90467CDE90645CDE908AB039022
:102B680002910A9204D002A801F0B6F9002847D1D0
:102B7800FEF796FA2223036042E000220023204653
:102B8800294601F0DBFE0028B7D0744B72480022BA
:102B98000121B8F1020FCDF828B0CDE90467CDE9DD
:102BA8000645CDE9082303900291A8D002A801F0B8
:102BB80093F900287ED00A9B43B3FEF771FADDE94A
:102BC80008230A990160104619460DB0BDE8F08F38
:102BD800614999F900300122CDF828B0CDE90467A0
:102BE800CDE9064503910292002B68D05C4900208C
:102BF800022BCDE9080166D1FEF752FA21230360C2
:102C08000A9B1BB1FEF74CFA0A9B0360DDE9082317
:102C180075E73046394601F059F900283FF47BAF93
:102C28002046294601F052F900283FF474AFDDE947
:102C380000231046194601F0B3FE00286FD1464B19
:102C480099F90080039303230A90CDE90467CDE93D
:102C580006450293B8F1000F3BD1DFF814B14FF0ED
:102C6800604A0022002330463946CDE908AB01F01E
:102C78006FFE00283FF477AF00223A4B20462946E2
:102C880001F0F4FB04460D4601F02EF902460B460E
:102C98002046294601F052FE00283DD1324B4FF024
:102CA8006042CDE9082399F90080B8F1020F7FF45A
:102CB8005AAF5DE7FEF7F4F9212303607BE70023B1
:102CC8000024CDE9083402A801F006F9002897D1BC
:102CD80092E7DFF8A0B04FF0000A00220023304648
:102CE8003946CDE908AB01F033FE0028DDD00022DB
:102CF8001C4B2046294601F0B9FB04460D4601F05D
:102D0800F3F802460B462046294601F017FE18B98B
:102D1800134B0022CDE9082399F90080C5E70E4A34
:102D280099F900900123CDF82880CDE90467CDE911
:102D3800064503920293B9F1000FC0D00022002388
:102D48001046194601F0BCFCB9F1020FCDE90801A3
:102D58003FF452AFB7E700BF74550A080000F03FD0
:102D68000000F0FF0000E03FFFFFEFC70403002072
:102D7800FFFFEF470000F07F2DE9F04FB1F5801F0E
:102D880085B006460F460B465ADA024621F0004443
:102D9800224300F0F7800029C0F279810022D64B47
:102DA80001F064FB0B460F46D44906468B426FF090
:102DB800350249DCC3F3130505F5152404F66474DC
:102DC80004F4801E8EF07F5181F440111B15A3F28C
:102DD800FF3341EA05079C1830460022C84B3946A4
:102DE80004EB1E5401F08EF9AB1CC3F31303022B42
:102DF80082468B464FF000022FDC002301F09EFD37
:102E0800002800F0C880002C00F04A81204601F01C
:102E1800C7FAA5A3D3E9002306460F4601F026FB0F
:102E2800A3A3D3E9002304460D463046394601F0F2
:102E38001DFB02460B462046294601F065F909E0CC
:102E4800AE4900228B42B5DD32463B463046394614
:102E580001F05AF905B0BDE8F08F4FF0804301F05A
:102E680053F902460B465046594601F029FC0646DE
:102E780020460F4601F094FA3246CDE900013B4660
:102E880030463946CDE9026701F0F0FA02460B46B2
:102E98008046894601F0EAFA87A3D3E9002306466B
:102EA8000F4601F0E3FA86A3D3E9002301F02CF9D9
:102EB80032463B4601F0DAFA83A3D3E9002301F056
:102EC80023F932463B4601F0D1FA81A3D3E9002326
:102ED80001F01AF942464B4601F0C8FA7EA3D3E93D
:102EE8000023804689463046394601F0BFFA7CA364
:102EF800D3E9002301F008F932463B4601F0B6FA5F
:102F080079A3D3E9002301F0FFF832463B4601F0EC
:102F1800ADFA0B4602464946404601F0F5F8A5F5DC
:102F2800C223C5F5D725A3F27A4351351D43002D99
:102F38008046894656DD0022724B5046594601F0BC
:102F480095FA52465B4601F091FA06460F46002C68
:102F580068D132463B464046494601F0D5F8DDE99E
:102F6800022301F083FA02460B463046394601F047
:102F7800C9F802460B465046594601F0C3F805B059
:102F8800BDE8F08F0022002300205F4901F098FB84
:102F980005B0BDE8F08F56A3D3E900235046594643
:102FA80001F064FA02460B460020564901F0AAF8DF
:102FB800524606460F465B465046594601F056FAB9
:102FC80002460B463046394601F050FA06460F468F
:102FD800002C40F09B8002460B465046594601F0B3
:102FE80091F837E7002C00F0A5802FA3D3E9002340
:102FF800DDE9000101F03AFA42464B4604460D4627
:103008005046594601F07EF8DDE9022301F02EFA18
:1030180027A3D3E9002306460F46DDE9000101F0A6
:1030280025FA21E020A3D3E90023DDE9000101F01E
:103038001DFA32463B4604460D464046494601F0D5
:1030480063F8DDE9022301F011FA19A3D3E900239B
:1030580080468946DDE9000101F008FA02460B4680
:103068004046494601F050F802460B46304639467C
:1030780001F048F852465B4601F044F802460B4618
:103088002046294601F03EF805B0BDE8F08F02461B
:103098000B4601F037F80022002301F011FBD9E6B6
:1030A80000200021D6E600BF0000E0FE422EE63FE9
:1030B800763C7935EF39EA3D44523EDF12F1C23FA2
:1030C800DE03CB966446C73F599322942449D23FE6
:1030D800935555555555E53F9FC678D0099AC33F36
:1030E800AF788E1DC571CC3F04FA97999999D93F4D
:1030F800555555555555D53F00005043FFFFEF7FB7
:103108000000F03F0000E03F000050C3204601F0FF
:1031180047F90FA3D3E900238046894601F0A6F9B1
:103128000DA3D3E9002304460D464046494601F065
:103138009DF999E702460B465046594600F0E2FFD2
:10314800DDE9022301F092F913E700BFAFF3008035
:103158000000E0FE422EE63F763C7935EF39EA3D45
:10316800B1F5801F2DE9F84304460D460B461ADADF
:10317800024621F00046324358D000295EDB002287
:10318800394B01F073F90B460D46384904468B421A
:103198006FF035020BDD22462B462046294600F00B
:1031A800B3FFBDE8F883314900228B42F3DC1815E0
:1031B800A0F2FF3010444FEAD0794844C3F3130813
:1031C80001F0EEF8C9F57F73033348EA0355064664
:1031D8000F4620462946FFF7CFFD1DA3D3E900235C
:1031E800804689463046394601F040F91AA3D3E9AA
:1031F800002304460D464046494601F037F9024689
:103208000B462046294600F07FFF15A3D3E900238B
:1032180004460D463046394601F028F902460B4669
:103228002046294600F070FFBDE8F88300220023FD
:1032380000200F4901F044FABDE8F88302460B4626
:1032480000F060FF0022002301F03AFABDE8F8839D
:10325800362BF111F3FE593D0EE526157BCBDB3FEE
:1032680000609F501344D33F00005043FFFFEF7F9F
:10327800000050C3000000002DE9F04F23F0004883
:1032880058EA020993B03CD0714C21F00046A6429E
:1032980083460D460CDD06F1404606F5801656EAD3
:1032A8000B0038D183466B49584613B0BDE8F08F00
:1032B8009A4696462BD0A045EDDC654CA04578D0C3
:1032C800002D0F468146CDE9002376DB0024BEF1B0
:1032D800000F27D15E4B984500F08B805D4B9845D9
:1032E80052D0BAF1804F00F0C9835B4B9A4519D18F
:1032F800002D17DB4846394613B0BDE8F04F00F003
:103308001DBDCB465846534913B0BDE8F08F002881
:10331800C1D1B045D1DD514813B0BDE8F04F00F040
:10332800DDBD00244846394600F0CCFDBBF1000F56
:103338001CD0ED0F013D54EA050370D0484B984569
:1033480040F3948003F10473984540F30D84454B92
:103358009E4270DDBAF1000F70DD3BA3D3E9002374
:103368001046194601F082F883469DE726B1394B8D
:1033780025F040429A42DCD1BAF1000FC0F2B7837F
:10338800002D08DB83468FE7BAF1000FC0F25E8498
:10339800CB46394688E706F1404606F5801656EAD8
:1033A800040300F08384012CECD101F10041834631
:1033B8007AE7BEF1000F83D06DE72B4B98452CDCE4
:1033C800A3F15473984581DD4FEA2853A3F2FF33E4
:1033D800142B40F35384C3F134032EFA03F202FA98
:1033E80003F39E457FF472AF02F00102C2F10204BA
:1033F8006DE706F1404303F5801353EA0B0300F031
:103408003A83184B9E4240F36783BAF1000F15DBED
:10341800DDE900349B46214646E7022457E74A4641
:1034280048463B46394600F06DFE02460B4601F021
:1034380047F9834638E7BAF1000F8EDB4FF0000BEF
:10344800594631E7AFF300809C7500883CE4377E2D
:103458000000F07F0000F03F0000E03F68550A08D8
:103468000000E041FFFFEF3FFFFF3F43B6F5801F3D
:103478004FF0000205DAD04B00F0F8FF0E466FF06F
:103488003402DFF844E33315C6F31306A3F2FF331F
:1034980046F07F57764503EB020A47F4401740F39E
:1034A800C983C64B00229E4240F304840023CDE921
:1034B8000823CDE90C23C24B0022CDE906230AF1EB
:1034C800010AA7F5801700263946DDE90623CDE96C
:1034D8000A0100F017FEDDE9062380468946DDE98A
:1034E8000A0100F011FE02460B460020B44901F023
:1034F800E7F80A4601461346CDE90E120246494648
:10350800404600F0B3FF8C4683467B1043F00053DF
:1035180003F5002399190020CDE904BC06460F469F
:103528004FF0000B6146584632463B46CDE910BC89
:10353800CDE9020100F09AFF02460B464046494693
:1035480000F0E0FDDDE9062380468946304639462D
:1035580000F0D8FD02460B46DDE90A0100F0D2FD75
:10356800DDE9022300F082FF02460B464046494649
:1035780000F0C8FDDDE90E2300F078FFDDE90478EE
:10358800CDE906013A4643463846414600F06EFF0B
:1035980077A3D3E9002306460F4600F067FF76A31A
:1035A800D3E9002300F0B0FD32463B4600F05EFF51
:1035B80073A3D3E9002300F0A7FD32463B4600F091
:1035C80055FF71A3D3E9002300F09EFD32463B4628
:1035D80000F04CFF6EA3D3E9002300F095FD3246BE
:1035E8003B4600F043FF6CA3D3E9002300F08CFDB9
:1035F8003246804689463B463046394600F036FF1B
:1036080002460B464046494600F030FFDDE90223FA
:1036180006460F46DDE9040100F076FDDDE90623E4
:1036280000F024FF32463B4600F06EFDDDE90267FC
:103638008046894632463B463046394600F016FFFA
:103648000022604BCDE90A0100F05EFD42464B4680
:1036580000F05AFDDDE910BC0F46DDE902015A46CB
:103668003B46CDE90EBC5E4600F000FF0022CDE9E6
:103678000201544B3046394600F044FDDDE90A2387
:1036880000F040FD02460B464046494600F03AFD30
:10369800DDE9042300F0EAFE324680468946DDE98A
:1036A80006013B4600F0E2FE02460B46404649460C
:1036B80000F02AFD8046894602460B46DDE90201F4
:1036C80000F022FDDDE90EBC35A3D3E900235846FE
:1036D800CDE906BC5E460F4600F0C8FEDDE90223D0
:1036E800CDE904013046394600F00CFD02460B4690
:1036F8004046494600F006FD2BA3D3E9002300F01D
:10370800B5FE2BA3D3E900238046894630463946C7
:1037180000F0ACFE02460B464046494600F0F4FC79
:10372800DDE90C2300F0F0FC80465046894600F0A5
:1037380037FE06460F46DDE9040142464B4600F0D7
:10374800E3FCDDE9082300F0DFFC32463B4600F0ED
:10375800DBFCDDE906BC324658463B46DA468B467A
:1037680000F0D0FCDDE9082330E000BFAFF30080B3
:10377800EF4E454A287ECA3F65DBC9934A86CD3F4E
:1037880001411DA96074D13F4D268F515555D53F34
:10379800FFAB6FDBB66DDB3F033333333333E33FCC
:1037A800000000E009C7EE3FFD033ADC09C7EE3F21
:1037B800F5015B14E02F3EBE0000404379B60B00D4
:1037C8000000F03F000008408E98030000F09AFCCB
:1037D800DDE9042300F096FC02460B4640464946C4
:1037E80000F090FC80468946DDE90012013C54EA6D
:1037F800050314BFD64CD74C0023CDE904340B463F
:103808001446CDE9023400230293DDE90245084657
:103818002B461146224600F075FC52465B4600F0E6
:1038280025FEDDE9002306460F464046494600F0DE
:103838001DFE02460B463046394600F065FC06463A
:103848000F4622462B4650465946CDE9006700F000
:103858000DFE0B460246804689463046394600F042
:1038680053FCBD4B064699420D460C4640F30E816B
:1038780001F13F4303F5E003034340F0F081A0A3C7
:10388800D3E90023DDE9000100F03EFC4246824610
:103898008B464B463046294600F034FC02460B4620
:1038A8005046594601F072F8002840F0D8812F465A
:1038B8003B154FF48012A3F2FE3342FA03F323447C
:1038C800C3F30A52A54EA2F2FF321641C3F3130BFB
:1038D8000020C2F1140523EA06014BF4801B0246BE
:1038E8000B46002C4BFA05FB40464946B8BFCBF1C6
:1038F800000B00F007FC02460B4680468946DDE9CE
:10390800000100F001FC4FEA0B5A00247EA3D3E922
:10391800002320460D4600F0A9FD424606460F4604
:103928004B462046294600F0EDFB02460B46DDE9F2
:10393800000100F0E7FB76A3D3E9002300F096FD31
:1039480075A3D3E90023804689462046294600F01E
:103958008DFD02460B464046494600F0D5FB8046A1
:10396800894602460B463046394600F0CDFB3246C2
:103978003B4604460D4600F0C5FB02460B46404652
:10398800494600F0BFFB2246804689462B46204622
:10399800294600F06BFD62A3D3E9002306460F46D3
:1039A80000F064FD60A3D3E9002300F0ABFB3246CE
:1039B8003B4600F05BFD5EA3D3E9002300F0A4FBC7
:1039C80032463B4600F052FD5BA3D3E9002300F0EA
:1039D80099FB32463B4600F049FD59A3D3E9002341
:1039E80000F092FB32463B4600F040FD02460B4693
:1039F8002046294600F086FB06460F4602460B463F
:103A08002046294600F032FD0022CDE900014FF0A2
:103A180080433046394600F075FB02460B46DDE927
:103A2800000100F04DFE424606460F464B46204632
:103A3800294600F01BFD42464B4600F065FB024656
:103A48000B463046394600F05DFB22462B4600F017
:103A580059FB02460B4600203D4900F053FB8A44BF
:103A6800BAF5801FC0F237815146DDE9042300F022
:103A7800FDFC834618E4F346354915E44A464846B2
:103A88003B46394600F0F2FC83460DE4344B21F006
:103A980000479F4240F30181324B0B4403430CD152
:103AA80042464B4600F02EFB02460B46DDE900017C
:103AB80000F058FF00283FF4FBAE23A3D3E900230E
:103AC800DDE9040100F0D2FC1FA3D3E9002300F0D4
:103AD800CDFC8346FFF7E8BBBAF1000FBFF6AEACEA
:103AE800DDE900349B4604F10041FFF7DDBB0246E7
:103AF8000B460020164900F0E3FD41E4AFF30080D7
:103B0800FE822B654715973C00000000432EE63FD8
:103B1800EF39FAFE422EE63F396CA80C615C20BEF4
:103B2800D0A4BE726937663EF16BD2C541BDBB3EBB
:103B38002CDE25AF6A56113F93BDBE166CC1663F99
:103B48003E5555555555C53F59F3F8C21F6EA50149
:103B58000000F03F0000F0BFFFFF8F40FFFF0F00A5
:103B6800FFCB904000346F3F6F4B9E427FF763ACB2
:103B78006E4B9E423FF7EEAB00226C4B00F0C2FA50
:103B88005BA3D3E9002306460F4600F06FFC5AA357
:103B9800D3E90023804689463046394600F066FC62
:103BA800002282468B46624B3046394600F05EFC66
:103BB80002460B4652A1D1E9000100F0A3FA3246B1
:103BC8003B4600F053FC02460B460020594900F0E2
:103BD80099FA3246CDE902013B463046394600F0B3
:103BE80045FC02460B46DDE9020100F03FFC46A316
:103BF800D3E9002300F03AFC02460B4650465946EA
:103C080000F080FA02460B4606460F4640464946F3
:103C180000F07AFA42464B46002082468B4600F076
:103C280071FA02460B463046394600F06BFA804678
:103C38008946D9E500220023CDE90823CDE90C23E4
:103C48003A4B00220026CDE906233DE44A463B468E
:103C58000020364900F034FD8346FFF725BB2CA32E
:103C6800D3E90023DDE9040100F000FC28A3D3E92F
:103C7800002300F0FBFB8346FFF716BBBEF1000FE5
:103C88007FF44FABC3F1140348FA03F202FA03F3CB
:103C9800984524D07446FFF721BB264B9F423FF737
:103CA80007AEDDE902349A469B462EE602460B46ED
:103CB800FFF7B9BB204B4FF48026CDE9062316A3A6
:103CC800D3E90023CDE9082315A3D3E90023CDE9DF
:103CD8000C23FFF7F9BB5A4600F096F9C5E602F047
:103CE8000102C2F10204FFF7F9BA00BFAFF3008086
:103CF800000000604715F73F44DF5DF80BAE543E07
:103D0800555555555555D53FFE822B654715F73FF7
:103D18009C7500883CE4377E0000004003B8E23F11
:103D280006D0CF43EBFD4C3EFEFFEF3F0000F03FD7
:103D38000000D03F0000E03F0000F83F2DE9F041CF
:103D48005F4E0C46B6460E407645054600F0988014
:103D580000290B46024674DD5FEA215E7FD0AEF291
:103D6800FF3EC3F313031EF0010F43F4801363D126
:103D780000273E4603EBD2710B444FEA6E0E520009
:103D880016204FF4001174189C424FEAD2754FEA7E
:103D9800420202DC1B1B66180F44013805EB430383
:103DA8004FEA5101EFD1844620244FF0004109E049
:103DB80020D003EBD275013C4FEA51012B444FEA66
:103DC800420220D09E4201EB0C05F1DA002D05EBF2
:103DD800010C09DBB0469542A3EB060300D9013B71
:103DE8004646521B0844E4E7BCF1000FF2DB06F13B
:103DF8000108F0E7954217D8002D05EB010C49DBC7
:103E080098460023ECE7134310D140087B1003F1D8
:103E18007F5303F50013FA0703EB0E57394648BFE3
:103E280040F00040BDE8F0813346C2E7411C35D080
:103E380000F001031844E8E75B0003EBD27352007B
:103E480096E721F000460643ECD079BB8E46D30AAC
:103E5800AEF1150E5205002BF9D0DD0221D4002158
:103E680000E001465B00DC0201F10100F9D5C0F178
:103E7800200422FA04F42343C1EB0E0E82406EE7BD
:103E880002460B4600F0F2FA2A46234600F03CF9B7
:103E9800BDE8F081BCF1000FA9DAB1E7013720468F
:103EA800B4E720244FF0FF310020E2E702460B463A
:103EB80000F028F902460B4600F002FCB2E700BF0A
:103EC8000000F07F21F00041704700BF41F0004141
:103ED80001F58010C00F704700207047002001498D
:103EE800704700BF0000F87FF0B5C1F30A5EAEF27C
:103EF800FF36132E83B002460B460C464FEAD175A7
:103F080007462EDC002E49DB3D49314103EA01001A
:103F180010432BD049080B4053EA02070CD04FF44A
:103F28008023132E24EA010143FA06F444EA01042B
:103F38000CBF4FF000470027324B214603EBC50565
:103F4800D5E90045384622462B4600F0DDF8CDE994
:103F58000001DDE9000122462B4600F0D3F803B04A
:103F6800F0BD332E06DDB6F5806F45D010461946F4
:103F780003B0F0BDAEF2134E4FF0FF3121FA0EF14F
:103F88000842F3D049080842D6D04FF0804320EACF
:103F9800010143FA0EFE4EEA0107CDE721F0004188
:103FA80001431946E4D0C3F3130343EA000CCCF1F0
:103FB800000343EA0C0C134B640C4FEA1C3C0CF452
:103FC800002C03EBC5036404D3E900674CEA040141
:103FD80032463B4600F098F8CDE90001DDE90001E2
:103FE80032463B4600F08EF8024621F0004141EA95
:103FF800C57310461946BBE700F086F8B8E700BF5E
:10400800FFFF0F0078550A08F8B5C1F30A560446B1
:104018000D460B46174606BB21F00043034325D047
:1040280000222F4B00F022FA2E4A044697420D46F2
:104038000B462ADBC1F30A56363E40F2FE723E4476
:10404800964228DC002E12DD23F0FF4323F4E00320
:1040580043EA065520462946F8BD40F2FF729642CB
:10406800EBD102460B4600F04FF8F8BDF8BD16F14B
:10407800350F1DDA4CF250339F420CDC14A1D1E904
:10408800000122462B4600F031F811A3D3E90023A2
:1040980000F0ECF9F8BD22460FA1D1E900012B464A
:1040A80000F024F80CA3D3E9002300F0DFF9F8BDF1
:1040B80023F0FF4323F4E003363643EA065520464F
:1040C80029460022084B00F0D1F9F8BDAFF3008073
:1040D80059F3F8C21F6EA5019C7500883CE4377E31
:1040E80000005043B03CFFFF0000903C03F0004349
:1040F80021F0004242EA0301704700BF81F000410D
:1041080002E000BF83F0004330B54FEA41044FEAB4
:10411800430594EA050F08BF90EA020F1FBF54EA4F
:10412800000C55EA020C7FEA645C7FEA655C00F0EB
:10413800E2804FEA5454D4EB5555B8BF6D420CDDBC
:104148002C4480EA020281EA030382EA000083EA3F
:10415800010180EA020281EA0303362D88BF30BDDF
:1041680011F0004F4FEA01314FF4801C4CEA113135
:1041780002D0404261EB410113F0004F4FEA033394
:104188004CEA133302D0524263EB430394EA050F1F
:1041980000F0A780A4F10104D5F1200E0DDB02FA8E
:1041A8000EFC22FA05F2801841F1000103FA0EF222
:1041B800801843FA05F359410EE0A5F120050EF1E8
:1041C800200E012A03FA0EFC28BF4CF0020C43FA19
:1041D80005F3C01851EBE37101F0004507D54FF026
:1041E800000EDCF1000C7EEB00006EEB0101B1F576
:1041F800801F1BD3B1F5001F0CD349085FEA3000BC
:104208004FEA3C0C04F101044FEA445212F5800FC6
:1042180080F09A80BCF1004F08BF5FEA500C50F163
:10422800000041EB045141EA050130BD5FEA4C0C46
:10423800404141EB010111F4801FA4F10104E9D1CF
:1042480091F0000F04BF01460020B1FA81F308BFC6
:104258002033A3F10B03B3F120020CDA0C3208DD92
:1042680002F1140CC2F10C0201FA0CF021FA02F16D
:104278000CE002F11402D8BFC2F1200C01FA02F1DD
:1042880020FA0CFCDCBF41EA0C019040E41AA2BF02
:1042980001EB0451294330BD6FEA04041F3C1CDACA
:1042A8000C340EDC04F11404C4F1200220FA04F0EA
:1042B80001FA02F340EA030021FA04F345EA030194
:1042C80030BDC4F10C04C4F1200220FA02F001FA56
:1042D80004F340EA0300294630BD21FA04F02946D8
:1042E80030BD94F0000F83F4801306BF81F4801171
:1042F8000134013D4EE77FEA645C18BF7FEA655CE4
:1043080029D094EA050F08BF90EA020F05D054EAB5
:10431800000C04BF1946104630BD91EA030F1EBFBA
:104328000021002030BD5FEA545C05D140004941BE
:1043380028BF41F0004130BD14F580043CBF01F5B1
:10434800801130BD01F0004545F0FE4141F4700197
:104358004FF0000030BD7FEA645C1ABF1946104672
:104368007FEA655C1CBF0B46024650EA013406BF73
:1043780052EA033591EA030F41F4002130BD00BF32
:1043880090F0000F04BF0021704730B54FF48064EF
:1043980004F132044FF000054FF0000150E700BF70
:1043A80090F0000F04BF0021704730B54FF48064CF
:1043B80004F1320410F0004548BF40424FF00001BC
:1043C8003EE700BF42004FEAE2014FEA31014FEAFF
:1043D80002701FBF12F07F4393F07F4F81F060514E
:1043E800704792F0000F14BF93F07F4F704730B5BD
:1043F8004FF4607401F0004521F0004120E700BF50
:1044080050EA010208BF704730B54FF000050AE0D6
:1044180050EA010208BF704730B511F0004502D5D7
:10442800404261EB41014FF4806404F132045FEAD9
:10443800915C3FF4DCAE4FF003025FEADC0C18BF7E
:1044480003325FEADC0C18BF033202EBDC02C2F174
:10445800200300FA03FC20FA02F001FA03FE40EA06
:104468000E0021FA02F11444C1E600BF70B54FF006
:10447800FF0C4CF4E06C1CEA11541DBF1CEA1355E8
:1044880094EA0C0F95EA0C0F00F0DEF82C4481EA50
:10449800030621EA4C5123EA4C5350EA013518BF70
:1044A80052EA033541F4801143F4801338D0A0FB5D
:1044B80002CE4FF00005E1FB02E506F00042E0FB0A
:1044C80003E54FF00006E1FB03569CF0000F18BF10
:1044D8004EF0010EA4F1FF04B6F5007F64F54074B8
:1044E80004D25FEA4E0E6D4146EB060642EAC6214B
:1044F80041EA55514FEAC52040EA5E504FEACE2EB8
:10450800B4F1FD0C88BFBCF5E06F1ED8BEF1004FBA
:1045180008BF5FEA500E50F1000041EB045170BD36
:1045280006F0004646EA010140EA020081EA03017A
:10453800B4EB5C04C2BFD4EB0C0541EA045170BD76
:1045480041F480114FF0000E013C00F3AB8014F1F0
:10455800360FDEBF002001F0004170BDC4F1000439
:10456800203C35DA0C341BDC04F11404C4F12005BA
:1045780000FA05F320FA04F001FA05F240EA020015
:1045880001F0004221F0004110EBD37021FA04F64B
:1045980042EB06015EEA430E08BF20EAD37070BD05
:1045A800C4F10C04C4F1200500FA04F320FA05F064
:1045B80001FA04F240EA020001F0004110EBD37066
:1045C80041F100015EEA430E08BF20EAD37070BDD6
:1045D800C4F1200500FA05F24EEA020E20FA04F3AF
:1045E80001FA05F243EA020321FA04F001F000415E
:1045F80021FA04F220EA020000EBD3705EEA430ECF
:1046080008BF20EAD37070BD94F0000F0FD101F0FD
:104618000046400041EB010111F4801F08BF013C36
:10462800F7D041EA060195F0000F18BF704703F074
:104638000046520043EB030313F4801F08BF013DFB
:10464800F7D043EA0603704794EA0C0F0CEA1355B7
:1046580018BF95EA0C0F0CD050EA410618BF52EA71
:104668004306D1D181EA030101F000414FF0000077
:1046780070BD50EA410606BF1046194652EA430685
:1046880019D094EA0C0F02D150EA013613D195EAF9
:104698000C0F05D152EA03361CBF104619460AD141
:1046A80081EA030101F0004141F0FE4141F470014B
:1046B8004FF0000070BD41F0FE4141F4780170BD3B
:1046C80070B54FF0FF0C4CF4E06C1CEA11541DBFA0
:1046D8001CEA135594EA0C0F95EA0C0F00F0A7F8A2
:1046E800A4EB050481EA030E52EA03354FEA0131CF
:1046F80000F088804FEA03334FF0805545EA1313E2
:1047080043EA12634FEA022245EA111545EA1065A9
:104718004FEA00260EF000419D4208BF964244F140
:10472800FD0404F5407402D25B084FEA3202B61A5F
:1047380065EB03055B084FEA32024FF480104FF433
:10474800002CB6EB020E75EB030E22BFB61A7546A7
:1047580040EA0C005B084FEA3202B6EB020E75EB3A
:10476800030E22BFB61A754640EA5C005B084FEAA2
:104778003202B6EB020E75EB030E22BFB61A75466F
:1047880040EA9C005B084FEA3202B6EB020E75EB7A
:10479800030E22BFB61A754640EADC0055EA060E3B
:1047A80018D04FEA051545EA16754FEA06164FEA7E
:1047B800C30343EA52734FEAC2025FEA1C1CC0D12A
:1047C80011F4801F0BD141EA00014FF000004FF0B7
:1047D800004CB6E711F4801F04BF01430020B4F178
:1047E800FD0C88BFBCF5E06F3FF6AFAEB5EB030C30
:1047F80004BFB6EB020C5FEA500C50F1000041EB2D
:10480800045170BD0EF0004E4EEA113114EB5C04F9
:10481800C2BFD4EB0C0541EA045170BD41F48011CC
:104828004FF0000E013C90E645EA060E8DE60CEAD4
:10483800135594EA0C0F08BF95EA0C0F3FF43BAFF1
:1048480094EA0C0F0AD150EA01347FF434AF95EAA8
:104858000C0F7FF425AF104619462CE795EA0C0F8C
:1048680006D152EA03353FF4FDAE1046194622E759
:1048780050EA410618BF52EA43067FF4C5AE50EA33
:1048880041047FF40DAF52EA43057FF4EBAE12E723
:104898004FF0FF3C06E000BF4FF0010C02E000BF04
:1048A8004FF0010C4DF804CD4FEA410C7FEA6C5CE7
:1048B8004FEA430C18BF7FEA6C5C1BD001B050EA8A
:1048C800410C0CBF52EA430C91EA030F02BF90EA75
:1048D800020F0020704710F1000F91EA030F58BF34
:1048E800994208BF90422CBFD8176FEAE37040F096
:1048F800010070474FEA410C7FEA6C5C02D150EA34
:10490800013C07D14FEA430C7FEA6C5CD6D152EAEE
:10491800033CD3D05DF8040B704700BF84461046B3
:1049280062468C461946634600E000BF01B5FFF7B2
:10493800B7FF002848BF10F1000F01BD4DF808ED82
:10494800FFF7F4FF0CBF012000205DF808FB00BF53
:104958004DF808EDFFF7EAFF34BF012000205DF8AD
:1049680008FB00BF4DF808EDFFF7E0FF94BF0120FA
:1049780000205DF808FB00BF4DF808EDFFF7CEFFFB
:1049880094BF012000205DF808FB00BF4DF808ED3A
:10499800FFF7C4FF34BF012000205DF808FB00BF0B
:1049A8004FEA410C7FEA6C5C02D150EA013C0AD123
:1049B8004FEA430C7FEA6C5C02D152EA033C02D115
:1049C8004FF0000070474FF0010070474FEA410276
:1049D80012F5001215D211D56FF47873B3EB625249
:1049E80012D94FEAC12343F0004343EA505311F070
:1049F800004F23FA02F018BF404270474FF0000002
:104A0800704750EA013005D111F0004008BF6FF03F
:104A1800004070474FF00000704700BF4A0011D2B5
:104A280012F5001211D20DD56FF47873B3EB625200
:104A38000ED44FEAC12343F0004343EA505323FA0C
:104A480002F070474FF00000704750EA013002D181
:104A58004FF0FF3070474FF0000070474FEA4102B7
:104A6800B2F1E04324BFB3F5001CDCF1FE5C0DD9C4
:104A780001F0004C4FEAC0024CEA5070B2F1004F0E
:104A880040EB830008BF20F00100704711F0804F11
:104A980021D113F13872BCBF01F00040704741F4D6
:104AA80080114FEA5252C2F11802C2F1200C10FADA
:104AB8000CF320FA02F018BF40F001004FEAC123BE
:104AC8004FEAD32303FA0CFC40EA0C0023FA02F362
:104AD8004FEA4303CCE77FEA625307D150EA013338
:104AE8001EBF4FF0FE4040F44000704701F0004008
:104AF80040F0FE4040F40000704700BF80F00040E6
:104B080002E000BF81F0004142001FBF5FEA41039D
:104B180092EA030F7FEA226C7FEA236C6AD04FEA9D
:104B28001262D2EB1363C1BFD218414048404140E2
:104B3800B8BF5B42192B88BF704710F0004F40F494
:104B4800000020F07F4018BF404211F0004F41F4B0
:104B5800000121F07F4118BF494292EA030F3FD07C
:104B6800A2F1010241FA03FC10EB0C00C3F120038F
:104B780001FA03F100F0004302D5494260EB40001E
:104B8800B0F5000F13D3B0F1807F06D340084FEA89
:104B9800310102F10102FE2A51D2B1F1004F40EB7E
:104BA800C25008BF20F0010040EA030070474900E6
:104BB80040EB000010F4000FA2F10102EDD1B0FAB1
:104BC80080FCACF1080CB2EB0C0200FA0CF0AABFA6
:104BD80000EBC25052421843BCBFD0401843704744
:104BE80092F0000F81F4000106BF80F4000001324A
:104BF800013BB5E74FEA41037FEA226C18BF7FEA21
:104C0800236C21D092EA030F04D092F0000F08BF62
:104C18000846704790EA010F1CBF0020704712F049
:104C28007F4F04D1400028BF40F00040704712F188
:104C380000723CBF00F50000704700F0004343F0ED
:104C4800FE4040F4000070477FEA226216BF084623
:104C58007FEA23630146420206BF5FEA412390EAE6
:104C6800010F40F4800070474FF0000304E000BFDC
:104C780010F0004348BF40425FEA000C08BF70478D
:104C880043F0964301464FF000001CE050EA010251
:104C980008BF70474FF000030AE000BF50EA010266
:104CA80008BF704711F0004302D5404261EB410153
:104CB8005FEA010C02BF84460146002043F0B64378
:104CC80008BFA3F18053A3F50003BCFA8CF2083A9D
:104CD800A3EBC25310DB01FA02FC634400FA02FCA6
:104CE800C2F12002BCF1004F20FA02F243EB0200AD
:104CF80008BF20F00100704702F1200201FA02FC0F
:104D0800C2F1200250EA4C0021FA02F243EB020001
:104D180008BF20EADC7070474FF0FF0C1CEAD05245
:104D28001EBF1CEAD15392EA0C0F93EA0C0F6FD006
:104D38001A4480EA010C400218BF5FEA41211ED0E4
:104D48004FF0006343EA501043EA5111A0FB0131D0
:104D58000CF00040B1F5000F3EBF490041EAD371A5
:104D68005B0040EA010062F17F02FD2A1DD8B3F121
:104D7800004F40EBC25008BF20F00100704790F090
:104D8800000F0CF0004C08BF49024CEA502040EAE2
:104D980051207F3AC2BFD2F1FF0340EAC2507047A8
:104DA80040F400004FF00003013A5DDC12F1190FE6
:104DB800DCBF00F000407047C2F10002410021FA58
:104DC80002F1C2F1200200FA02FC5FEA310040F170
:104DD800000053EA4C0308BF20EADC70704792F0E9
:104DE800000F00F0004C02BF400010F4000F013A21
:104DF800F9D040EA0C0093F0000F01F0004C02BF1C
:104E0800490011F4000F013BF9D041EA0C018FE78A
:104E18000CEAD15392EA0C0F18BF93EA0C0F0AD090
:104E280030F0004C18BF31F0004CD8D180EA0100B6
:104E380000F00040704790F0000F17BF90F0004F4F
:104E4800084691F0000F91F0004F14D092EA0C0F31
:104E580001D142020FD193EA0C0F03D14B0218BFC4
:104E6800084608D180EA010000F0004040F0FE400A
:104E780040F40000704740F0FE4040F440007047A6
:104E88004FF0FF0C1CEAD0521EBF1CEAD15392EA25
:104E98000C0F93EA0C0F69D0A2EB030280EA010C15
:104EA80049024FEA402037D04FF0805343EA1111AE
:104EB80043EA10130CF000408B4238BF5B0042F10C
:104EC8007D024FF4000C8B4224BF5B1A40EA0C00B1
:104ED800B3EB510F24BFA3EB510340EA5C00B3EBE3
:104EE800910F24BFA3EB910340EA9C00B3EBD10FD1
:104EF80024BFA3EBD10340EADC001B0118BF5FEA23
:104F08001C1CE0D1FD2A3FF650AF8B4240EBC2504B
:104F180008BF20F0010070470CF0004C4CEA50200C
:104F28007F32C2BFD2F1FF0340EAC250704740F45B
:104F380000004FF00003013A37E792F0000F00F04D
:104F4800004C02BF400010F4000F013AF9D040EACB
:104F58000C0093F0000F01F0004C02BF490011F45F
:104F6800000F013BF9D041EA0C0195E70CEAD15357
:104F780092EA0C0F08D142027FF47DAF93EA0C0F3E
:104F88007FF470AF084676E793EA0C0F04D14B0222
:104F98003FF44CAF08466EE730F0004C18BF31F0D4
:104FA800004CCAD130F000427FF45CAF31F00043CE
:104FB8007FF43CAF5FE700BF10B5054C13462CB13A
:104FC8000A4601460220AFF3008010BD204610BDFE
:104FD8000000000010B5431E0A44914204D011F8A5
:104FE800014B03F8014FF8E710BD03460244934212
:104FF80002D003F8011BFAE77047000038B5124BDE
:1050080005461C68A36BD3B91820FCF731F843F2A6
:105018000E33A06303804AF6CD33438041F2342334
:1050280083804EF26D63C3804DF6EC6303810523E4
:1050380043810B23838101220023C0E90423A36B4E
:1050480000221D615A6138BD68030020034613F829
:10505800012B002AFBD1181A013870471D000A08D5
:105068005D000A0889000A088D000A08000000008F
:10507800507265737320616E79206B657920746F47
:105088002073746172742E00444854204578616D11
:10509800706C652070726F6772616D207573696ED0
:1050A80067204448542E6163717569726520616E8A
:1050B80064204448542E6171756972696E67004CAA
:1050C80049422076657273696F6E3A20002D2D2D46
:1050D8002D2D2D2D2D2D2D2D2D2D2D2D003A205200
:1050E800657472696576696E6720696E666F726D40
:1050F8006174696F6E2066726F6D2073656E736F71
:10510800723A2000526561642073656E736F723A5B
:1051180020004F4B004572726F720A0D0943686593
:10512800636B73756D206572726F72004572726F72
:10513800720A0D094953522074696D65206F7574A0
:10514800206572726F72004572726F720A0D095291
:105158006573706F6E73652074696D65206F757403
:10516800206572726F72004572726F720A0D09447F
:105178006174612074696D65206F75742065727241
:105188006F72004572726F720A0D09416371756919
:1051980072696E67004572726F720A0D0944656C18
:1051A80074612074696D6520746F20736D616C6C17
:1051B800004572726F720A0D094E6F742073746124
:1051C8007274656400556E6B6E6F776E20657272CF
:1051D8006F720048756D6964697479202825293AC9
:1051E800200054656D706572617475726520286F52
:1051F80043293A200054656D706572617475726553
:1052080020286F46293A200054656D7065726174D4
:1052180075726520284B293A200044657720506F25
:10522800696E7420286F43293A200044657720501E
:105238006F696E7420536C6F7720286F43293A206A
:1052480000302E302E370000000000000000000063
:10525800BF100A0809110A08E1100A08C1100A0853
:10526800E9100A08F1100A08F9100A0801110A08D9
:10527800000000000000000043120A0835120A0866
:1052880037120A086C6E00666E00636F646500640E
:10529800657461696C000D0A002530313075200095
:1052A8005D20002564002C200028293A2000205B7E
:1052B80000636F6465203D200025690064657461A2
:1052C800696C73203D2000626175640053657269E2
:1052D800616C0055534253657269616C3100747991
:1052E800706500706172616D00636D6400696400CF
:1052F800686E64007374726D0066696C74006C7615
:105308006C0061646448616E646C65720072656DFE
:105318006F766548616E646C657200656E756D4880
:10532800616E646C657273004A534F4E53747265B4
:10533800616D4C6F6748616E646C65720061707076
:10534800006E6F6E6500747261636500696E666FEA
:10535800007761726E0070616E6963000000000082
:105368000000000021130A082B130A0835130A0845
:105378003F130A0849130A0855130A0861130A0853
:105388006D130A0875130A087F130A0889130A0897
:105398006E616E006F766600696E66000000000040
:1053A80000000000CD160A08CF160A080000000009
:1053B8000000000069170A086F170A08871B0A0807
:1053C8007B170A086B170A0800000000000000009D
:1053D800050B0A085D0B0A0825170A083F170A0873
:1053E80085180A08EF170A08C1170A0867170A0874
:1053F80031190A08A11B0A0823180A08FD180A0807
:105408007F1A0A08D11A0A084F170A08431A0A0805
:10541800A1170A08776972696E6700544350436C94
:1054280069656E7420736F636B65743D2578005AE7
:1054380000252B3033643A253032750025592D2547
:105448006D2D25645425483A254D3A2553257A0073
:1054580061736374696D650000000000000000005E
:10546800E50A0A084B0B0A083B1C0A085B1D0A08D8
:10547800331C0A08511C0A086F1C0A08891C0A08F0
:10548800AB1C0A08F51C0A08171D0A08AD1E0A08F5
:10549800C11D0A081D1C0A08BB1F0A08291E0A0884
:1054A800E51E0A08E91F0A08851D0A08291C0A08BA
:1054B8008D1E0A082F1C0A088B1C0A08F0FFFFFF24
:1054C80000000000A31C0A08000000000000000003
:1054D80021200A0845200A0851200A0805140A084C
:1054E8002D200A0839200A0833200A083F200A0814
:1054F80023200A0827200A080000000000000000F6
:105508002D210A0871210A084B210A0805140A08E6
:1055180045210A082F210A0837210A086B210A08A1
:105528003F210A0829210A080000000000000000A5
:1055380007230A08FD220A08F3220A0865220A0836
:10554800E7220A08DB220A08CF220A08C7220A082B
:10555800BD220A08B3220A086F220A086C6F670086
:10556800000000006C6F673130000000706F77003A
:10557800000000000000304300000000000030C3BD
:105588000000000000000000000000000000000013
:105598000000000000000000000000000000000003
:1055A80000000000000000000000000000000000F3
:1055B80000000000000000000000000000000000E3
:1055C80000000000000000000000000000000000D3
:1055D80000000000000000000000000000000000C3
:1055E800430000006D030A08E10A0A08710B0A0863
:1055F800CD0B0A08F50B0A08030C0A08090C0A085F
:10560800190C0A08410C0A08690C0A0811130A083F
:10561800F1130A08B1160A080D170A08091C0A0826
:1056280011230A0839250A0869250A08BD250A0828
:1056380081260A0805270A0889270A0800000000A9
:0856480000000000000000005A
:045650000000000056
:1056540058540A08010000000000000088550A0898
:10566400A8550A08C8550A080000000000000000F8
:105674000000000000000000E8550A0800000000D7
:105684000000000000000000000000000000000016
:105694000000000000000000000000000000000006
:1056A40000000000000000000000000000000000F6
:0C56B400000000000000000008030020BF
:1056C000FFFFFFFF00000102030405060708090AA7
:1056D0000B0C0D0E0F101112131415161718191AA2
:0856E0001B1C1D1E1F202800E9
:0456E80078563412AA
:04000005080A0018CD
:00000001FF
